{
  "_format": "hh-sol-artifact-1",
  "contractName": "Lock",
  "sourceName": "contracts/Lock.sol",
  "abi": [
    {
      "inputs": [
        {
          "internalType": "uint256",
          "name": "_unlockTime",
          "type": "uint256"
        }
      ],
      "stateMutability": "payable",
      "type": "constructor"
    },
    {
      "anonymous": false,
      "inputs": [
        {
          "indexed": false,
          "internalType": "uint256",
          "name": "amount",
          "type": "uint256"
        },
        {
          "indexed": false,
          "internalType": "uint256",
          "name": "when",
          "type": "uint256"
        }
      ],
      "name": "Withdrawal",
      "type": "event"
    },
    {
      "inputs": [],
      "name": "owner",
      "outputs": [
        {
          "internalType": "address payable",
          "name": "",
          "type": "address"
        }
      ],
      "stateMutability": "view",
      "type": "function"
    },
    {
      "inputs": [],
      "name": "unlock",
      "outputs": [],
      "stateMutability": "nonpayable",
      "type": "function"
    },
    {
      "inputs": [],
      "name": "unlockTime",
      "outputs": [
        {
          "internalType": "uint256",
          "name": "",
          "type": "uint256"
        }
      ],
      "stateMutability": "view",
      "type": "function"
    },
    {
      "inputs": [],
      "name": "withdraw",
      "outputs": [],
      "stateMutability": "nonpayable",
      "type": "function"
    }
  ],
  "bytecode": "0x6080604052604051610927380380610927833981810160405281019061002591906100f0565b804210610067576040517f08c379a000000000000000000000000000000000000000000000000000000000815260040161005e906101a0565b60405180910390fd5b8060008190555033600160006101000a81548173ffffffffffffffffffffffffffffffffffffffff021916908373ffffffffffffffffffffffffffffffffffffffff160217905550506101c0565b600080fd5b6000819050919050565b6100cd816100ba565b81146100d857600080fd5b50565b6000815190506100ea816100c4565b92915050565b600060208284031215610106576101056100b5565b5b6000610114848285016100db565b91505092915050565b600082825260208201905092915050565b7f556e6c6f636b2074696d652073686f756c6420626520696e207468652066757460008201527f7572650000000000000000000000000000000000000000000000000000000000602082015250565b600061018a60238361011d565b91506101958261012e565b604082019050919050565b600060208201905081810360008301526101b98161017d565b9050919050565b610758806101cf6000396000f3fe608060405234801561001057600080fd5b506004361061004c5760003560e01c8063251c1aa3146100515780633ccfd60b1461006f5780638da5cb5b14610079578063a69df4b514610097575b600080fd5b6100596100a1565b6040516100669190610419565b60405180910390f35b6100776100a7565b005b610081610252565b60405161008e9190610475565b60405180910390f35b61009f610278565b005b60005481565b6100cc6040518060600160405280602b81526020016106f8602b913960005442610311565b6103e86000546100dc91906104bf565b42101561011e576040517f08c379a00000000000000000000000000000000000000000000000000000000081526004016101159061054d565b60405180910390fd5b600160009054906101000a900473ffffffffffffffffffffffffffffffffffffffff1673ffffffffffffffffffffffffffffffffffffffff163373ffffffffffffffffffffffffffffffffffffffff16146101ae576040517f08c379a00000000000000000000000000000000000000000000000000000000081526004016101a5906105b9565b60405180910390fd5b7fbf2ed60bd5b5965d685680c01195c9514e4382e28e3a5a2d2d5244bf59411b9347426040516101df9291906105d9565b60405180910390a1600160009054906101000a900473ffffffffffffffffffffffffffffffffffffffff1673ffffffffffffffffffffffffffffffffffffffff166108fc479081150290604051600060405180830381858888f1935050505015801561024f573d6000803e3d6000fd5b50565b600160009054906101000a900473ffffffffffffffffffffffffffffffffffffffff1681565b600160009054906101000a900473ffffffffffffffffffffffffffffffffffffffff1673ffffffffffffffffffffffffffffffffffffffff163373ffffffffffffffffffffffffffffffffffffffff1614610308576040517f08c379a00000000000000000000000000000000000000000000000000000000081526004016102ff906105b9565b60405180910390fd5b42600081905550565b6103ab8383836040516024016103299392919061068a565b6040516020818303038152906040527fca47c4eb000000000000000000000000000000000000000000000000000000007bffffffffffffffffffffffffffffffffffffffffffffffffffffffff19166020820180517bffffffffffffffffffffffffffffffffffffffffffffffffffffffff83818316178352505050506103b0565b505050565b6103c7816103bf6103ca6103eb565b63ffffffff16565b50565b60006a636f6e736f6c652e6c6f679050600080835160208501845afa505050565b6103f6819050919050565b6103fe6106c8565b565b6000819050919050565b61041381610400565b82525050565b600060208201905061042e600083018461040a565b92915050565b600073ffffffffffffffffffffffffffffffffffffffff82169050919050565b600061045f82610434565b9050919050565b61046f81610454565b82525050565b600060208201905061048a6000830184610466565b92915050565b7f4e487b7100000000000000000000000000000000000000000000000000000000600052601260045260246000fd5b60006104ca82610400565b91506104d583610400565b9250826104e5576104e4610490565b5b828204905092915050565b600082825260208201905092915050565b7f596f752063616e27742077697468647261772079657400000000000000000000600082015250565b60006105376016836104f0565b915061054282610501565b602082019050919050565b600060208201905081810360008301526105668161052a565b9050919050565b7f596f75206172656e277420746865206f776e6572000000000000000000000000600082015250565b60006105a36014836104f0565b91506105ae8261056d565b602082019050919050565b600060208201905081810360008301526105d281610596565b9050919050565b60006040820190506105ee600083018561040a565b6105fb602083018461040a565b9392505050565b600081519050919050565b60005b8381101561062b578082015181840152602081019050610610565b8381111561063a576000848401525b50505050565b6000601f19601f8301169050919050565b600061065c82610602565b61066681856104f0565b935061067681856020860161060d565b61067f81610640565b840191505092915050565b600060608201905081810360008301526106a48186610651565b90506106b3602083018561040a565b6106c0604083018461040a565b949350505050565b7f4e487b7100000000000000000000000000000000000000000000000000000000600052605160045260246000fdfe556e6c6f636b2074696d6520697320256f20616e6420626c6f636b2074696d657374616d7020697320256fa264697066735822122072a5e0121f7ca202283270bc2f8e4fc225e5cc23e0c5ce8b0fb67575e9e7f62264736f6c63430008090033",
  "linkReferences": {},
  "deployedLinkReferences": {}
}